:020000040000FA
:04000000B1EF00F06C
:100008004982D9CF2AF0DACF2BF09EAA0EEF00F062
:1000180010EF00F01FEF00F0010E1324D96E000E50
:100028001420DA6E67EC02F0DF6E134A142A000E11
:10003800166E000E156EF2A424EF00F026EF00F005
:10004800ABEF00F0F294ABB42CEF00F02EEF00F021
:1000580035EF00F0ABA233EF00F035EF00F03AEFE8
:1000680000F0AB9EAC8AAB88AC98AB8E14BE46EF62
:1000780000F0145009E1080E135CD8A046EF00F018
:1000880048EF00F072EF00F048500118D8A44FEF85
:1000980000F051EF00F068EF00F0030E0218D8A44A
:1000A80058EF00F05AEF00F061EF00F0478213C0FC
:1000B80011F014C012F06EEF00F0000E106E010E79
:1000C8000F6E47826EEF00F0000E106E020E0F6E7C
:1000D80065EF00F0000E146E000E136E47A077EF68
:1000E80000F079EF00F0ABEF00F0ACA27EEF00F08B
:1000F80080EF00F0ABEF00F04790828A000E2D6E83
:10010800000E2C6E93EF00F01B0E2C24D96E000EFF
:100118002D20DA6EDF505CEC02F02C4A2D2A0D50AF
:100128002C5C2D50800A296E0E50800A2958D8A0C0
:10013800A0EF00F0A2EF00F088EF00F0829A000E26
:100148000E6E000E0D6E000E106E000E0F6E2BC0A0
:10015800DAFF2AC0D9FF4992110033EF02F0000EEE
:100168000F01386F000E926E000E806E000E396F10
:10017800000E936E000E816E000E3A6FDF0E946EC5
:10018800000E826E000E3B6F000E956E000E836EA1
:10019800A10EC06E000EC16E030EC26EB896AC946E
:1001A8000C0EAF6EAC8AAB88AC98AB8E9D8A9F8ADA
:1001B800C30ED56EF28AF28CF28E47A2E6EF00F0FB
:1001C800E8EF00F0E1EF00F04792030E1B6E0F50CE
:1001D8001010D8A4F2EF00F0F4EF00F046EF01F0B1
:1001E80006C041F0426A04C043F0446A000E0A6E39
:1001F800030E096E02C01CF0065006241D6E000E88
:10020800466E000E456E21EF01F01B0E316E000E9A
:10021800326E43504524336E44504620346E09C034
:1002280035F00AC036F0E6EC01F0020E0924096E3A
:10023800000E0A200A6E454A462A4150455C46503F
:10024800800A406E4250800A4058D8A02EEF01F034
:1002580030EF01F009EF01F01B0E0924D96E000EF2
:100268000A20DA6E490EDF6E094A0A2A1B0E092493
:10027800D96E000E0A20DA6EAD0EDF6E094A0A2A20
:100288006FEF01F00F041010D8A44DEF01F04FEFFD
:1002980001F05BEF01F01B0E2E6E000E2F6E000EAC
:1002A800316E010E306E78EC01F06FEF01F0020E46
:1002B8000F181010D8A463EF01F065EF01F06FEF8D
:1002C80001F01B0E2E6E000E2F6E000E316E020E08
:1002D800306E78EC01F009C00DF00AC00EF04780CE
:1002E800E1EF00F0B1EF00F030043110D8A47FEF57
:1002F80001F081EF01F0AFEF01F0000E0A6E010E80
:10030800096E09502E24D96E0A502F20DA6E830EFA
:10031800DF6E094A0A2A09502E24D96E0A502F2066
:10032800DA6E010EDF6E094A0A2A09502E24D96EA8
:100338000A502F20DA6EAC0EDF6E094A0A2A0950DD
:100348002E24D96E0A502F20DA6E630EDF6E094A0A
:100358000A2AE5EF01F0020E30183110D8A4B7EFE1
:1003680001F0B9EF01F0E5EF01F0000E0A6E010EA1
:10037800096E09502E24D96E0A502F20DA6E830E8A
:10038800DF6E094A0A2A09502E24D96E0A502F20F6
:10039800DA6E020EDF6E094A0A2A09502E24D96E37
:1003A8000A502F20DA6EB00EDF6E094A0A2A095069
:1003B8002E24D96E0A502F20DA6E530EDF6EABEF63
:1003C80001F0120035C039F036C03AF020EF02F0E3
:1003D8001B0E3924D96E000E3A20DA6E81CFDFFF6A
:1003E800394A3A2A1B0E3924D96E000E3A20DA6EA1
:1003F80083CFDFFF394A3A2A32EF02F0FF0E332467
:100408002E6EFF0E34202F6E4AEC02F01B0E39249C
:10041800D96E000E3A20DA6EC4CFDFFF394A3A2A85
:100428001B0E3924D96E000E3A20DA6EC3CFDFFFD7
:10043800394A3A2A32EF02F033C037F034C038F084
:100448003850000AD8B42BEF02F002EF02F0375010
:10045800000AD8B4ECEF01F002EF02F01200E00E4F
:10046800F66E040EF76E000EF86E0900F5CF48F030
:10047800476A00EE01F0270EEE6AE806FDE14990B2
:100488004992000EF86E0001B3EF00F02EC030F074
:1004980030463046C2503018830B3018C26EC282C4
:1004A800C2B259EF02F05BEF02F054EF02F0120013
:1004B800286E9EA862EF02F064EF02F05DEF02F092
:1004C80028C0ADFF12009EAA6CEF02F06EEF02F09A
:0904D80067EF02F0AE50120003C0
:020000040020DA
:08000000FFFFFFFFFFFFFFFF00
:020000040030CA
:0E000000FF221F3CFFBF85FF0FC00FE00F4027
:00000001FF
